{
  "_format": "hh-sol-artifact-1",
  "contractName": "PersistentCent",
  "sourceName": "contracts/PersistentCent.sol",
  "abi": [
    {
      "inputs": [
        {
          "internalType": "address",
          "name": "_initialOwner",
          "type": "address"
        },
        {
          "internalType": "uint256",
          "name": "_presaleStart",
          "type": "uint256"
        },
        {
          "internalType": "uint256",
          "name": "_presaleEnd",
          "type": "uint256"
        },
        {
          "internalType": "uint256",
          "name": "_presaleRate",
          "type": "uint256"
        },
        {
          "internalType": "uint256",
          "name": "_minPurchase",
          "type": "uint256"
        },
        {
          "internalType": "uint256",
          "name": "_maxPurchase",
          "type": "uint256"
        },
        {
          "internalType": "uint256",
          "name": "_softCap",
          "type": "uint256"
        },
        {
          "internalType": "uint256",
          "name": "_hardCap",
          "type": "uint256"
        }
      ],
      "stateMutability": "nonpayable",
      "type": "constructor"
    },
    {
      "inputs": [
        {
          "internalType": "address",
          "name": "spender",
          "type": "address"
        },
        {
          "internalType": "uint256",
          "name": "allowance",
          "type": "uint256"
        },
        {
          "internalType": "uint256",
          "name": "needed",
          "type": "uint256"
        }
      ],
      "name": "ERC20InsufficientAllowance",
      "type": "error"
    },
    {
      "inputs": [
        {
          "internalType": "address",
          "name": "sender",
          "type": "address"
        },
        {
          "internalType": "uint256",
          "name": "balance",
          "type": "uint256"
        },
        {
          "internalType": "uint256",
          "name": "needed",
          "type": "uint256"
        }
      ],
      "name": "ERC20InsufficientBalance",
      "type": "error"
    },
    {
      "inputs": [
        {
          "internalType": "address",
          "name": "approver",
          "type": "address"
        }
      ],
      "name": "ERC20InvalidApprover",
      "type": "error"
    },
    {
      "inputs": [
        {
          "internalType": "address",
          "name": "receiver",
          "type": "address"
        }
      ],
      "name": "ERC20InvalidReceiver",
      "type": "error"
    },
    {
      "inputs": [
        {
          "internalType": "address",
          "name": "sender",
          "type": "address"
        }
      ],
      "name": "ERC20InvalidSender",
      "type": "error"
    },
    {
      "inputs": [
        {
          "internalType": "address",
          "name": "spender",
          "type": "address"
        }
      ],
      "name": "ERC20InvalidSpender",
      "type": "error"
    },
    {
      "inputs": [
        {
          "internalType": "address",
          "name": "owner",
          "type": "address"
        }
      ],
      "name": "OwnableInvalidOwner",
      "type": "error"
    },
    {
      "inputs": [
        {
          "internalType": "address",
          "name": "account",
          "type": "address"
        }
      ],
      "name": "OwnableUnauthorizedAccount",
      "type": "error"
    },
    {
      "inputs": [],
      "name": "ReentrancyGuardReentrantCall",
      "type": "error"
    },
    {
      "anonymous": false,
      "inputs": [
        {
          "indexed": true,
          "internalType": "address",
          "name": "owner",
          "type": "address"
        },
        {
          "indexed": true,
          "internalType": "address",
          "name": "spender",
          "type": "address"
        },
        {
          "indexed": false,
          "internalType": "uint256",
          "name": "value",
          "type": "uint256"
        }
      ],
      "name": "Approval",
      "type": "event"
    },
    {
      "anonymous": false,
      "inputs": [
        {
          "indexed": false,
          "internalType": "uint256",
          "name": "ethAmount",
          "type": "uint256"
        },
        {
          "indexed": false,
          "internalType": "uint256",
          "name": "tokenAmount",
          "type": "uint256"
        }
      ],
      "name": "LiquidityAdded",
      "type": "event"
    },
    {
      "anonymous": false,
      "inputs": [
        {
          "indexed": true,
          "internalType": "address",
          "name": "previousOwner",
          "type": "address"
        },
        {
          "indexed": true,
          "internalType": "address",
          "name": "newOwner",
          "type": "address"
        }
      ],
      "name": "OwnershipTransferred",
      "type": "event"
    },
    {
      "anonymous": false,
      "inputs": [
        {
          "indexed": false,
          "internalType": "uint256",
          "name": "totalRaised",
          "type": "uint256"
        },
        {
          "indexed": false,
          "internalType": "uint256",
          "name": "tokensSold",
          "type": "uint256"
        }
      ],
      "name": "PresaleFinalized",
      "type": "event"
    },
    {
      "anonymous": false,
      "inputs": [
        {
          "indexed": true,
          "internalType": "address",
          "name": "buyer",
          "type": "address"
        },
        {
          "indexed": false,
          "internalType": "uint256",
          "name": "amount",
          "type": "uint256"
        },
        {
          "indexed": false,
          "internalType": "uint256",
          "name": "ethContributed",
          "type": "uint256"
        }
      ],
      "name": "PresalePurchased",
      "type": "event"
    },
    {
      "anonymous": false,
      "inputs": [
        {
          "indexed": true,
          "internalType": "address",
          "name": "from",
          "type": "address"
        },
        {
          "indexed": true,
          "internalType": "address",
          "name": "to",
          "type": "address"
        },
        {
          "indexed": false,
          "internalType": "uint256",
          "name": "value",
          "type": "uint256"
        }
      ],
      "name": "Transfer",
      "type": "event"
    },
    {
      "anonymous": false,
      "inputs": [
        {
          "indexed": false,
          "internalType": "bytes32",
          "name": "newMerkleRoot",
          "type": "bytes32"
        }
      ],
      "name": "WhitelistUpdated",
      "type": "event"
    },
    {
      "inputs": [],
      "name": "ECOSYSTEM_SUPPLY",
      "outputs": [
        {
          "internalType": "uint256",
          "name": "",
          "type": "uint256"
        }
      ],
      "stateMutability": "view",
      "type": "function"
    },
    {
      "inputs": [],
      "name": "LIQUIDITY_SUPPLY",
      "outputs": [
        {
          "internalType": "uint256",
          "name": "",
          "type": "uint256"
        }
      ],
      "stateMutability": "view",
      "type": "function"
    },
    {
      "inputs": [],
      "name": "MARKETING_SUPPLY",
      "outputs": [
        {
          "internalType": "uint256",
          "name": "",
          "type": "uint256"
        }
      ],
      "stateMutability": "view",
      "type": "function"
    },
    {
      "inputs": [],
      "name": "MAX_SUPPLY",
      "outputs": [
        {
          "internalType": "uint256",
          "name": "",
          "type": "uint256"
        }
      ],
      "stateMutability": "view",
      "type": "function"
    },
    {
      "inputs": [],
      "name": "PRESALE_SUPPLY",
      "outputs": [
        {
          "internalType": "uint256",
          "name": "",
          "type": "uint256"
        }
      ],
      "stateMutability": "view",
      "type": "function"
    },
    {
      "inputs": [],
      "name": "TEAM_SUPPLY",
      "outputs": [
        {
          "internalType": "uint256",
          "name": "",
          "type": "uint256"
        }
      ],
      "stateMutability": "view",
      "type": "function"
    },
    {
      "inputs": [],
      "name": "addLiquidity",
      "outputs": [],
      "stateMutability": "payable",
      "type": "function"
    },
    {
      "inputs": [
        {
          "internalType": "address",
          "name": "owner",
          "type": "address"
        },
        {
          "internalType": "address",
          "name": "spender",
          "type": "address"
        }
      ],
      "name": "allowance",
      "outputs": [
        {
          "internalType": "uint256",
          "name": "",
          "type": "uint256"
        }
      ],
      "stateMutability": "view",
      "type": "function"
    },
    {
      "inputs": [
        {
          "internalType": "address",
          "name": "spender",
          "type": "address"
        },
        {
          "internalType": "uint256",
          "name": "value",
          "type": "uint256"
        }
      ],
      "name": "approve",
      "outputs": [
        {
          "internalType": "bool",
          "name": "",
          "type": "bool"
        }
      ],
      "stateMutability": "nonpayable",
      "type": "function"
    },
    {
      "inputs": [
        {
          "internalType": "address",
          "name": "account",
          "type": "address"
        }
      ],
      "name": "balanceOf",
      "outputs": [
        {
          "internalType": "uint256",
          "name": "",
          "type": "uint256"
        }
      ],
      "stateMutability": "view",
      "type": "function"
    },
    {
      "inputs": [
        {
          "internalType": "bytes32[]",
          "name": "_merkleProof",
          "type": "bytes32[]"
        }
      ],
      "name": "buyPresale",
      "outputs": [],
      "stateMutability": "payable",
      "type": "function"
    },
    {
      "inputs": [
        {
          "internalType": "address",
          "name": "",
          "type": "address"
        }
      ],
      "name": "contributions",
      "outputs": [
        {
          "internalType": "uint256",
          "name": "",
          "type": "uint256"
        }
      ],
      "stateMutability": "view",
      "type": "function"
    },
    {
      "inputs": [],
      "name": "decimals",
      "outputs": [
        {
          "internalType": "uint8",
          "name": "",
          "type": "uint8"
        }
      ],
      "stateMutability": "view",
      "type": "function"
    },
    {
      "inputs": [],
      "name": "finalizePresale",
      "outputs": [],
      "stateMutability": "nonpayable",
      "type": "function"
    },
    {
      "inputs": [],
      "name": "hardCap",
      "outputs": [
        {
          "internalType": "uint256",
          "name": "",
          "type": "uint256"
        }
      ],
      "stateMutability": "view",
      "type": "function"
    },
    {
      "inputs": [
        {
          "internalType": "address",
          "name": "_user",
          "type": "address"
        },
        {
          "internalType": "bytes32[]",
          "name": "_merkleProof",
          "type": "bytes32[]"
        }
      ],
      "name": "isWhitelisted",
      "outputs": [
        {
          "internalType": "bool",
          "name": "",
          "type": "bool"
        }
      ],
      "stateMutability": "view",
      "type": "function"
    },
    {
      "inputs": [],
      "name": "liquidityLocked",
      "outputs": [
        {
          "internalType": "bool",
          "name": "",
          "type": "bool"
        }
      ],
      "stateMutability": "view",
      "type": "function"
    },
    {
      "inputs": [],
      "name": "maxPurchase",
      "outputs": [
        {
          "internalType": "uint256",
          "name": "",
          "type": "uint256"
        }
      ],
      "stateMutability": "view",
      "type": "function"
    },
    {
      "inputs": [],
      "name": "minPurchase",
      "outputs": [
        {
          "internalType": "uint256",
          "name": "",
          "type": "uint256"
        }
      ],
      "stateMutability": "view",
      "type": "function"
    },
    {
      "inputs": [],
      "name": "name",
      "outputs": [
        {
          "internalType": "string",
          "name": "",
          "type": "string"
        }
      ],
      "stateMutability": "view",
      "type": "function"
    },
    {
      "inputs": [],
      "name": "owner",
      "outputs": [
        {
          "internalType": "address",
          "name": "",
          "type": "address"
        }
      ],
      "stateMutability": "view",
      "type": "function"
    },
    {
      "inputs": [],
      "name": "presaleEnd",
      "outputs": [
        {
          "internalType": "uint256",
          "name": "",
          "type": "uint256"
        }
      ],
      "stateMutability": "view",
      "type": "function"
    },
    {
      "inputs": [],
      "name": "presaleFinalized",
      "outputs": [
        {
          "internalType": "bool",
          "name": "",
          "type": "bool"
        }
      ],
      "stateMutability": "view",
      "type": "function"
    },
    {
      "inputs": [],
      "name": "presaleRate",
      "outputs": [
        {
          "internalType": "uint256",
          "name": "",
          "type": "uint256"
        }
      ],
      "stateMutability": "view",
      "type": "function"
    },
    {
      "inputs": [],
      "name": "presaleStart",
      "outputs": [
        {
          "internalType": "uint256",
          "name": "",
          "type": "uint256"
        }
      ],
      "stateMutability": "view",
      "type": "function"
    },
    {
      "inputs": [],
      "name": "renounceOwnership",
      "outputs": [],
      "stateMutability": "nonpayable",
      "type": "function"
    },
    {
      "inputs": [
        {
          "internalType": "bytes32",
          "name": "_merkleRoot",
          "type": "bytes32"
        }
      ],
      "name": "setWhitelistMerkleRoot",
      "outputs": [],
      "stateMutability": "nonpayable",
      "type": "function"
    },
    {
      "inputs": [],
      "name": "softCap",
      "outputs": [
        {
          "internalType": "uint256",
          "name": "",
          "type": "uint256"
        }
      ],
      "stateMutability": "view",
      "type": "function"
    },
    {
      "inputs": [],
      "name": "symbol",
      "outputs": [
        {
          "internalType": "string",
          "name": "",
          "type": "string"
        }
      ],
      "stateMutability": "view",
      "type": "function"
    },
    {
      "inputs": [],
      "name": "totalRaised",
      "outputs": [
        {
          "internalType": "uint256",
          "name": "",
          "type": "uint256"
        }
      ],
      "stateMutability": "view",
      "type": "function"
    },
    {
      "inputs": [],
      "name": "totalSupply",
      "outputs": [
        {
          "internalType": "uint256",
          "name": "",
          "type": "uint256"
        }
      ],
      "stateMutability": "view",
      "type": "function"
    },
    {
      "inputs": [
        {
          "internalType": "address",
          "name": "to",
          "type": "address"
        },
        {
          "internalType": "uint256",
          "name": "value",
          "type": "uint256"
        }
      ],
      "name": "transfer",
      "outputs": [
        {
          "internalType": "bool",
          "name": "",
          "type": "bool"
        }
      ],
      "stateMutability": "nonpayable",
      "type": "function"
    },
    {
      "inputs": [
        {
          "internalType": "address",
          "name": "from",
          "type": "address"
        },
        {
          "internalType": "address",
          "name": "to",
          "type": "address"
        },
        {
          "internalType": "uint256",
          "name": "value",
          "type": "uint256"
        }
      ],
      "name": "transferFrom",
      "outputs": [
        {
          "internalType": "bool",
          "name": "",
          "type": "bool"
        }
      ],
      "stateMutability": "nonpayable",
      "type": "function"
    },
    {
      "inputs": [
        {
          "internalType": "address",
          "name": "newOwner",
          "type": "address"
        }
      ],
      "name": "transferOwnership",
      "outputs": [],
      "stateMutability": "nonpayable",
      "type": "function"
    },
    {
      "inputs": [],
      "name": "whitelistMerkleRoot",
      "outputs": [
        {
          "internalType": "bytes32",
          "name": "",
          "type": "bytes32"
        }
      ],
      "stateMutability": "view",
      "type": "function"
    },
    {
      "inputs": [],
      "name": "withdrawRaisedETH",
      "outputs": [],
      "stateMutability": "nonpayable",
      "type": "function"
    },
    {
      "stateMutability": "payable",
      "type": "receive"
    }
  ],
  "bytecode": "0x60806040523480156200001157600080fd5b5060405162001e5338038062001e53833981016040819052620000349162000472565b876040518060400160405280600f81526020016e14195c9cda5cdd195b9d0810d95b9d608a1b815250604051806040016040528060058152602001641410d1539560da1b81525081600390816200008c91906200058e565b5060046200009b82826200058e565b5050506001600160a01b038116620000ce57604051631e4fbdf760e01b8152600060048201526024015b60405180910390fd5b620000d98162000245565b5060017f9b779b17422d0df92223018b32b4d1fa46e071723d6817e2486d003becc55f00558587106200014f5760405162461bcd60e51b815260206004820152601660248201527f496e76616c69642070726573616c6520706572696f64000000000000000000006044820152606401620000c5565b60008511620001905760405162461bcd60e51b815260206004820152600c60248201526b496e76616c6964207261746560a01b6044820152606401620000c5565b80821115620001e25760405162461bcd60e51b815260206004820152601960248201527f536f6674206361702065786365656473206861726420636170000000000000006044820152606401620000c5565b6006879055600786905560088590556009849055600a839055600b829055600c8190556200021e306c01431e0fae6d7217caa000000062000297565b6200023730896b019d971e4fe8401e74000000620002d5565b505050505050505062000682565b600580546001600160a01b038381166001600160a01b0319831681179093556040519116919082907f8be0079c531659141344cd1fd0a4f28419497f9722a3daafe3b4186f6b6457e090600090a35050565b6001600160a01b038216620002c35760405163ec442f0560e01b815260006004820152602401620000c5565b620002d1600083836200033f565b5050565b6001600160a01b0383166200030157604051634b637e8f60e11b815260006004820152602401620000c5565b6001600160a01b0382166200032d5760405163ec442f0560e01b815260006004820152602401620000c5565b6200033a8383836200033f565b505050565b6001600160a01b0383166200036e5780600260008282546200036291906200065a565b90915550620003e29050565b6001600160a01b03831660009081526020819052604090205481811015620003c35760405163391434e360e21b81526001600160a01b03851660048201526024810182905260448101839052606401620000c5565b6001600160a01b03841660009081526020819052604090209082900390555b6001600160a01b03821662000400576002805482900390556200041f565b6001600160a01b03821660009081526020819052604090208054820190555b816001600160a01b0316836001600160a01b03167fddf252ad1be2c89b69c2b068fc378daa952ba7f163c4a11628f55a4df523b3ef836040516200046591815260200190565b60405180910390a3505050565b600080600080600080600080610100898b0312156200049057600080fd5b88516001600160a01b0381168114620004a857600080fd5b809850506020890151965060408901519550606089015194506080890151935060a0890151925060c0890151915060e089015190509295985092959890939650565b634e487b7160e01b600052604160045260246000fd5b600181811c908216806200051557607f821691505b6020821081036200053657634e487b7160e01b600052602260045260246000fd5b50919050565b601f8211156200033a57600081815260208120601f850160051c81016020861015620005655750805b601f850160051c820191505b81811015620005865782815560010162000571565b505050505050565b81516001600160401b03811115620005aa57620005aa620004ea565b620005c281620005bb845462000500565b846200053c565b602080601f831160018114620005fa5760008415620005e15750858301515b600019600386901b1c1916600185901b17855562000586565b600085815260208120601f198616915b828110156200062b578886015182559484019460019091019084016200060a565b50858210156200064a5787850151600019600388901b60f8161c191681555b5050505050600190811b01905550565b808201808211156200067c57634e487b7160e01b600052601160045260246000fd5b92915050565b6117c180620006926000396000f3fe6080604052600436106102135760003560e01c80638da5cb5b11610118578063c5c4744c116100a0578063e8078d941161006f578063e8078d941461060f578063f2fde38b14610617578063fb2f66561461054a578063fb86a40414610637578063fdc2c74d1461064d57600080fd5b8063c5c4744c1461058a578063dd62ed3e146105a0578063de8801e5146105e6578063e5f29ed8146105fc57600080fd5b8063a0a6e940116100e7578063a0a6e940146104ff578063a9059cbb14610514578063aa98e0c614610534578063b9c3a8181461054a578063bd32fb661461056a57600080fd5b80638da5cb5b14610496578063906a26e0146104be57806395d89b41146104d4578063977b055b146104e957600080fd5b806342e94c901161019b5780635e15dd6c1161016a5780635e15dd6c146103365780636d4980931461040f57806370a0823114610429578063715018a61461045f57806373138e4f1461047657600080fd5b806342e94c901461038d57806342f39381146103ba57806357976fb4146103d05780635a23dd99146103ef57600080fd5b806323b872dd116101e257806323b872dd146102fa578063313ce5671461031a5780633272f5051461033657806332cb6b0c1461035657806333b5b62e1461037757600080fd5b806306fdde031461026a578063095ea7b31461029557806318160ddd146102c5578063229f3e29146102e457600080fd5b366102655760405162461bcd60e51b815260206004820152601e60248201527f5573652062757950726573616c65282920746f20636f6e74726962757465000060448201526064015b60405180910390fd5b600080fd5b34801561027657600080fd5b5061027f610662565b60405161028c91906114b7565b60405180910390f35b3480156102a157600080fd5b506102b56102b0366004611521565b6106f4565b604051901515815260200161028c565b3480156102d157600080fd5b506002545b60405190815260200161028c565b3480156102f057600080fd5b506102d660075481565b34801561030657600080fd5b506102b561031536600461154b565b61070e565b34801561032657600080fd5b506040516012815260200161028c565b34801561034257600080fd5b506102d66b409f9cbc7c4a04c22000000081565b34801561036257600080fd5b506102d66c01431e0fae6d7217caa000000081565b34801561038357600080fd5b506102d660095481565b34801561039957600080fd5b506102d66103a8366004611587565b600f6020526000908152604090205481565b3480156103c657600080fd5b506102d660085481565b3480156103dc57600080fd5b50600e546102b590610100900460ff1681565b3480156103fb57600080fd5b506102b561040a3660046115ee565b610734565b34801561041b57600080fd5b50600e546102b59060ff1681565b34801561043557600080fd5b506102d6610444366004611587565b6001600160a01b031660009081526020819052604090205490565b34801561046b57600080fd5b506104746107ca565b005b34801561048257600080fd5b506102d66b60ef6b1aba6f07233000000081565b3480156104a257600080fd5b506005546040516001600160a01b03909116815260200161028c565b3480156104ca57600080fd5b506102d6600b5481565b3480156104e057600080fd5b5061027f6107de565b3480156104f557600080fd5b506102d6600a5481565b34801561050b57600080fd5b506104746107ed565b34801561052057600080fd5b506102b561052f366004611521565b6109aa565b34801561054057600080fd5b506102d660105481565b34801561055657600080fd5b506102d66b3077b58d5d3783919800000081565b34801561057657600080fd5b50610474610585366004611641565b6109b8565b34801561059657600080fd5b506102d6600d5481565b3480156105ac57600080fd5b506102d66105bb36600461165a565b6001600160a01b03918216600090815260016020908152604080832093909416825291909152205490565b3480156105f257600080fd5b506102d660065481565b61047461060a36600461168d565b6109f5565b610474610d46565b34801561062357600080fd5b50610474610632366004611587565b610e8d565b34801561064357600080fd5b506102d6600c5481565b34801561065957600080fd5b50610474610ecb565b606060038054610671906116cf565b80601f016020809104026020016040519081016040528092919081815260200182805461069d906116cf565b80156106ea5780601f106106bf576101008083540402835291602001916106ea565b820191906000526020600020905b8154815290600101906020018083116106cd57829003601f168201915b5050505050905090565b600033610702818585611014565b60019150505b92915050565b60003361071c858285611026565b6107278585856110a5565b60019150505b9392505050565b6010546000906107465750600161072d565b6040516bffffffffffffffffffffffff19606086901b1660208201526000906034016040516020818303038152906040528051906020012090506107c1848480806020026020016040519081016040528093929190818152602001838360200280828437600092019190915250506010549150849050611104565b95945050505050565b6107d261111a565b6107dc6000611147565b565b606060048054610671906116cf565b6107f561111a565b600e5460ff161561083c5760405162461bcd60e51b8152602060048201526011602482015270105b1c9958591e48199a5b985b1a5e9959607a1b604482015260640161025c565b6007544211806108505750600c54600d5410155b6108935760405162461bcd60e51b815260206004820152601460248201527350726573616c65206e6f7420636f6d706c65746560601b604482015260640161025c565b600e805460ff19166001179055600854600d546000916108b29161171f565b306000908152602081905260409020546108cc9190611736565b90506108f6306108e46005546001600160a01b031690565b6b3077b58d5d378391980000006110a5565b61090c306108e46005546001600160a01b031690565b610934306109226005546001600160a01b031690565b6b409f9cbc7c4a04c2200000006110a5565b61094a306109226005546001600160a01b031690565b801561095a5761095a3082611199565b7fedfde254cb8ed39d650c9a34251c59d6817fae4cc876cc2ce76669976cf102ee600d54600854600d5461098e919061171f565b604080519283526020830191909152015b60405180910390a150565b6000336107028185856110a5565b6109c061111a565b60108190556040518181527f136c0469109f45a2bf2f764309926b484a507d7645843502b6a6a68b2e5dc0eb9060200161099f565b600654421015610a3d5760405162461bcd60e51b8152602060048201526013602482015272141c995cd85b19481b9bdd081cdd185c9d1959606a1b604482015260640161025c565b600754421115610a7f5760405162461bcd60e51b815260206004820152600d60248201526c141c995cd85b1948195b991959609a1b604482015260640161025c565b600e5460ff1615610ad25760405162461bcd60e51b815260206004820152601960248201527f50726573616c6520616c72656164792066696e616c697a656400000000000000604482015260640161025c565b610ada6111cf565b610ae5338383610734565b610b235760405162461bcd60e51b815260206004820152600f60248201526e139bdd081dda1a5d195b1a5cdd1959608a1b604482015260640161025c565b600954341015610b6e5760405162461bcd60e51b815260206004820152601660248201527542656c6f77206d696e696d756d20707572636861736560501b604482015260640161025c565b600a54336000908152600f6020526040902054610b8c903490611749565b1115610bd15760405162461bcd60e51b815260206004820152601460248201527345786365656473206d617820707572636861736560601b604482015260640161025c565b600c5434600d54610be29190611749565b1115610c235760405162461bcd60e51b815260206004820152601060248201526f12185c990818d85c081c995858da195960821b604482015260640161025c565b600060085434610c33919061171f565b30600090815260208190526040902054909150811115610c955760405162461bcd60e51b815260206004820152601b60248201527f496e73756666696369656e742070726573616c6520737570706c790000000000604482015260640161025c565b336000908152600f602052604081208054349290610cb4908490611749565b9250508190555034600d6000828254610ccd9190611749565b90915550610cde90503033836110a5565b6040805182815234602082015233917f531c8e55a96ff0523b632a56c0fa5421bb41070dbcf7257b046152cc0fa16a30910160405180910390a250610d4260017f9b779b17422d0df92223018b32b4d1fa46e071723d6817e2486d003becc55f0055565b5050565b610d4e61111a565b600e5460ff16610da05760405162461bcd60e51b815260206004820152601f60248201527f50726573616c65206d7573742062652066696e616c697a656420666972737400604482015260640161025c565b600e54610100900460ff1615610df85760405162461bcd60e51b815260206004820152601760248201527f4c697175696469747920616c7265616479206164646564000000000000000000604482015260640161025c565b60003411610e385760405162461bcd60e51b815260206004820152600d60248201526c09aeae6e840e6cadcc8408aa89609b1b604482015260640161025c565b600e805461ff001916610100179055604080513481526b409f9cbc7c4a04c22000000060208201527f38f8a0c92f4c5b0b6877f878cb4c0c8d348a47b76d716c8e78f425043df9515b910160405180910390a1565b610e9561111a565b6001600160a01b038116610ebf57604051631e4fbdf760e01b81526000600482015260240161025c565b610ec881611147565b50565b610ed361111a565b600e5460ff16610f255760405162461bcd60e51b815260206004820152601960248201527f50726573616c65206d7573742062652066696e616c697a656400000000000000604482015260640161025c565b60004711610f6a5760405162461bcd60e51b81526020600482015260126024820152714e6f2045544820746f20776974686472617760701b604482015260640161025c565b6000610f7e6005546001600160a01b031690565b6001600160a01b03164760405160006040518083038185875af1925050503d8060008114610fc8576040519150601f19603f3d011682016040523d82523d6000602084013e610fcd565b606091505b5050905080610ec85760405162461bcd60e51b8152602060048201526013602482015272115512081d1c985b9cd9995c8819985a5b1959606a1b604482015260640161025c565b61102183838360016111fd565b505050565b6001600160a01b0383811660009081526001602090815260408083209386168352929052205460001981101561109f578181101561109057604051637dc7a0d960e11b81526001600160a01b0384166004820152602481018290526044810183905260640161025c565b61109f848484840360006111fd565b50505050565b6001600160a01b0383166110cf57604051634b637e8f60e11b81526000600482015260240161025c565b6001600160a01b0382166110f95760405163ec442f0560e01b81526000600482015260240161025c565b6110218383836112d2565b60008261111185846113fc565b14949350505050565b6005546001600160a01b031633146107dc5760405163118cdaa760e01b815233600482015260240161025c565b600580546001600160a01b038381166001600160a01b0319831681179093556040519116919082907f8be0079c531659141344cd1fd0a4f28419497f9722a3daafe3b4186f6b6457e090600090a35050565b6001600160a01b0382166111c357604051634b637e8f60e11b81526000600482015260240161025c565b610d42826000836112d2565b6111d7611449565b60027f9b779b17422d0df92223018b32b4d1fa46e071723d6817e2486d003becc55f0055565b6001600160a01b0384166112275760405163e602df0560e01b81526000600482015260240161025c565b6001600160a01b03831661125157604051634a1406b160e11b81526000600482015260240161025c565b6001600160a01b038085166000908152600160209081526040808320938716835292905220829055801561109f57826001600160a01b0316846001600160a01b03167f8c5be1e5ebec7d5bd14f71427d1e84f3dd0314c0f7b2291e5b200ac8c7c3b925846040516112c491815260200190565b60405180910390a350505050565b6001600160a01b0383166112fd5780600260008282546112f29190611749565b9091555061136f9050565b6001600160a01b038316600090815260208190526040902054818110156113505760405163391434e360e21b81526001600160a01b0385166004820152602481018290526044810183905260640161025c565b6001600160a01b03841660009081526020819052604090209082900390555b6001600160a01b03821661138b576002805482900390556113aa565b6001600160a01b03821660009081526020819052604090208054820190555b816001600160a01b0316836001600160a01b03167fddf252ad1be2c89b69c2b068fc378daa952ba7f163c4a11628f55a4df523b3ef836040516113ef91815260200190565b60405180910390a3505050565b600081815b84518110156114415761142d828683815181106114205761142061175c565b602002602001015161148b565b91508061143981611772565b915050611401565b509392505050565b7f9b779b17422d0df92223018b32b4d1fa46e071723d6817e2486d003becc55f00546002036107dc57604051633ee5aeb560e01b815260040160405180910390fd5b60008183106114a757600082815260208490526040902061072d565b5060009182526020526040902090565b600060208083528351808285015260005b818110156114e4578581018301518582016040015282016114c8565b506000604082860101526040601f19601f8301168501019250505092915050565b80356001600160a01b038116811461151c57600080fd5b919050565b6000806040838503121561153457600080fd5b61153d83611505565b946020939093013593505050565b60008060006060848603121561156057600080fd5b61156984611505565b925061157760208501611505565b9150604084013590509250925092565b60006020828403121561159957600080fd5b61072d82611505565b60008083601f8401126115b457600080fd5b50813567ffffffffffffffff8111156115cc57600080fd5b6020830191508360208260051b85010111156115e757600080fd5b9250929050565b60008060006040848603121561160357600080fd5b61160c84611505565b9250602084013567ffffffffffffffff81111561162857600080fd5b611634868287016115a2565b9497909650939450505050565b60006020828403121561165357600080fd5b5035919050565b6000806040838503121561166d57600080fd5b61167683611505565b915061168460208401611505565b90509250929050565b600080602083850312156116a057600080fd5b823567ffffffffffffffff8111156116b757600080fd5b6116c3858286016115a2565b90969095509350505050565b600181811c908216806116e357607f821691505b60208210810361170357634e487b7160e01b600052602260045260246000fd5b50919050565b634e487b7160e01b600052601160045260246000fd5b808202811582820484141761070857610708611709565b8181038181111561070857610708611709565b8082018082111561070857610708611709565b634e487b7160e01b600052603260045260246000fd5b60006001820161178457611784611709565b506001019056fea2646970667358221220c6930e6fa915d51d0b63ec9f5b31130fa21a5c8bec394179d9b6fa2335c7c14d64736f6c63430008140033",
  "linkReferences": {},
  "deployedLinkReferences": {}
}