{
  "_format": "hh-sol-artifact-1",
  "contractName": "SubmissionVault",
  "sourceName": "contracts/SubmissionVault.sol",
  "abi": [
    {
      "inputs": [
        {
          "internalType": "address",
          "name": "_feeToken",
          "type": "address"
        },
        {
          "internalType": "string",
          "name": "_symbol",
          "type": "string"
        },
        {
          "internalType": "uint256",
          "name": "_feeAmount",
          "type": "uint256"
        }
      ],
      "stateMutability": "nonpayable",
      "type": "constructor"
    },
    {
      "inputs": [
        {
          "internalType": "address",
          "name": "owner",
          "type": "address"
        }
      ],
      "name": "OwnableInvalidOwner",
      "type": "error"
    },
    {
      "inputs": [
        {
          "internalType": "address",
          "name": "account",
          "type": "address"
        }
      ],
      "name": "OwnableUnauthorizedAccount",
      "type": "error"
    },
    {
      "anonymous": false,
      "inputs": [
        {
          "indexed": false,
          "internalType": "uint256",
          "name": "oldFee",
          "type": "uint256"
        },
        {
          "indexed": false,
          "internalType": "uint256",
          "name": "newFee",
          "type": "uint256"
        }
      ],
      "name": "FeeAmountUpdated",
      "type": "event"
    },
    {
      "anonymous": false,
      "inputs": [
        {
          "indexed": true,
          "internalType": "address",
          "name": "hunter",
          "type": "address"
        },
        {
          "indexed": false,
          "internalType": "uint256",
          "name": "amount",
          "type": "uint256"
        },
        {
          "indexed": false,
          "internalType": "uint256",
          "name": "submissionId",
          "type": "uint256"
        }
      ],
      "name": "FeePaid",
      "type": "event"
    },
    {
      "anonymous": false,
      "inputs": [
        {
          "indexed": true,
          "internalType": "address",
          "name": "to",
          "type": "address"
        },
        {
          "indexed": false,
          "internalType": "uint256",
          "name": "amount",
          "type": "uint256"
        }
      ],
      "name": "FeeWithdrawn",
      "type": "event"
    },
    {
      "anonymous": false,
      "inputs": [
        {
          "indexed": true,
          "internalType": "address",
          "name": "previousOwner",
          "type": "address"
        },
        {
          "indexed": true,
          "internalType": "address",
          "name": "newOwner",
          "type": "address"
        }
      ],
      "name": "OwnershipTransferred",
      "type": "event"
    },
    {
      "inputs": [],
      "name": "backingBalance",
      "outputs": [
        {
          "internalType": "uint256",
          "name": "",
          "type": "uint256"
        }
      ],
      "stateMutability": "view",
      "type": "function"
    },
    {
      "inputs": [],
      "name": "feeAmount",
      "outputs": [
        {
          "internalType": "uint256",
          "name": "",
          "type": "uint256"
        }
      ],
      "stateMutability": "view",
      "type": "function"
    },
    {
      "inputs": [],
      "name": "feeToken",
      "outputs": [
        {
          "internalType": "contract IERC20",
          "name": "",
          "type": "address"
        }
      ],
      "stateMutability": "view",
      "type": "function"
    },
    {
      "inputs": [],
      "name": "owner",
      "outputs": [
        {
          "internalType": "address",
          "name": "",
          "type": "address"
        }
      ],
      "stateMutability": "view",
      "type": "function"
    },
    {
      "inputs": [
        {
          "internalType": "uint256",
          "name": "submissionId",
          "type": "uint256"
        }
      ],
      "name": "payFee",
      "outputs": [
        {
          "internalType": "bool",
          "name": "",
          "type": "bool"
        }
      ],
      "stateMutability": "nonpayable",
      "type": "function"
    },
    {
      "inputs": [],
      "name": "renounceOwnership",
      "outputs": [],
      "stateMutability": "nonpayable",
      "type": "function"
    },
    {
      "inputs": [
        {
          "internalType": "uint256",
          "name": "_feeAmount",
          "type": "uint256"
        }
      ],
      "name": "setFeeAmount",
      "outputs": [],
      "stateMutability": "nonpayable",
      "type": "function"
    },
    {
      "inputs": [],
      "name": "tokenSymbol",
      "outputs": [
        {
          "internalType": "string",
          "name": "",
          "type": "string"
        }
      ],
      "stateMutability": "view",
      "type": "function"
    },
    {
      "inputs": [],
      "name": "totalFeesCollected",
      "outputs": [
        {
          "internalType": "uint256",
          "name": "",
          "type": "uint256"
        }
      ],
      "stateMutability": "view",
      "type": "function"
    },
    {
      "inputs": [],
      "name": "totalSubmissions",
      "outputs": [
        {
          "internalType": "uint256",
          "name": "",
          "type": "uint256"
        }
      ],
      "stateMutability": "view",
      "type": "function"
    },
    {
      "inputs": [
        {
          "internalType": "address",
          "name": "newOwner",
          "type": "address"
        }
      ],
      "name": "transferOwnership",
      "outputs": [],
      "stateMutability": "nonpayable",
      "type": "function"
    },
    {
      "inputs": [
        {
          "internalType": "uint256",
          "name": "amount",
          "type": "uint256"
        },
        {
          "internalType": "address",
          "name": "to",
          "type": "address"
        }
      ],
      "name": "withdraw",
      "outputs": [],
      "stateMutability": "nonpayable",
      "type": "function"
    }
  ],
  "bytecode": "0x60806040523480156200001157600080fd5b5060405162000b2d38038062000b2d833981016040819052620000349162000103565b33806200005b57604051631e4fbdf760e01b81526000600482015260240160405180910390fd5b62000066816200009d565b50600180546001600160a01b0319166001600160a01b038516179055600262000090838262000291565b50600355506200035d9050565b600080546001600160a01b038381166001600160a01b0319831681178455604051919092169283917f8be0079c531659141344cd1fd0a4f28419497f9722a3daafe3b4186f6b6457e09190a35050565b634e487b7160e01b600052604160045260246000fd5b6000806000606084860312156200011957600080fd5b83516001600160a01b03811681146200013157600080fd5b602085810151919450906001600160401b03808211156200015157600080fd5b818701915087601f8301126200016657600080fd5b8151818111156200017b576200017b620000ed565b604051601f8201601f19908116603f01168101908382118183101715620001a657620001a6620000ed565b816040528281528a86848701011115620001bf57600080fd5b600093505b82841015620001e35784840186015181850187015292850192620001c4565b6000868483010152809750505050505050604084015190509250925092565b600181811c908216806200021757607f821691505b6020821081036200023857634e487b7160e01b600052602260045260246000fd5b50919050565b601f8211156200028c57600081815260208120601f850160051c81016020861015620002675750805b601f850160051c820191505b81811015620002885782815560010162000273565b5050505b505050565b81516001600160401b03811115620002ad57620002ad620000ed565b620002c581620002be845462000202565b846200023e565b602080601f831160018114620002fd5760008415620002e45750858301515b600019600386901b1c1916600185901b17855562000288565b600085815260208120601f198616915b828110156200032e578886015182559484019460019091019084016200030d565b50858210156200034d5787850151600019600388901b60f8161c191681555b5050505050600190811b01905550565b6107c0806200036d6000396000f3fe608060405234801561001057600080fd5b50600436106100b35760003560e01c8063715018a611610071578063715018a6146101385780637b61c320146101405780638da5cb5b14610155578063a395401614610166578063d289ade21461016f578063f2fde38b1461019257600080fd5b8062f714ce146100b85780631925675a146100cd57806360c6d8ae146100e8578063647846a5146100f157806369e154041461011c5780636b39268014610125575b600080fd5b6100cb6100c6366004610618565b6101a5565b005b6100d56102ae565b6040519081526020015b60405180910390f35b6100d560045481565b600154610104906001600160a01b031681565b6040516001600160a01b0390911681526020016100df565b6100d560035481565b6100cb610133366004610644565b610320565b6100cb61036d565b610148610381565b6040516100df919061065d565b6000546001600160a01b0316610104565b6100d560055481565b61018261017d366004610644565b61040f565b60405190151581526020016100df565b6100cb6101a03660046106ab565b610541565b6101ad61057f565b60015460405163a9059cbb60e01b81526001600160a01b038381166004830152602482018590529091169063a9059cbb906044016020604051808303816000875af1158015610200573d6000803e3d6000fd5b505050506040513d601f19601f8201168201806040525081019061022491906106cd565b6102675760405162461bcd60e51b815260206004820152600f60248201526e15da5d1a191c985dc819985a5b1959608a1b60448201526064015b60405180910390fd5b806001600160a01b03167f78473f3f373f7673597f4f0fa5873cb4d375fea6d4339ad6b56dbd411513cb3f836040516102a291815260200190565b60405180910390a25050565b6001546040516370a0823160e01b81523060048201526000916001600160a01b0316906370a0823190602401602060405180830381865afa1580156102f7573d6000803e3d6000fd5b505050506040513d601f19601f8201168201806040525081019061031b91906106ef565b905090565b61032861057f565b600380549082905560408051828152602081018490527fb6600428041f36ab218d984115a85adc1ffb17cb85a81801032cb590a8a8bc99910160405180910390a15050565b61037561057f565b61037f60006105ac565b565b6002805461038e90610708565b80601f01602080910402602001604051908101604052809291908181526020018280546103ba90610708565b80156104075780601f106103dc57610100808354040283529160200191610407565b820191906000526020600020905b8154815290600101906020018083116103ea57829003601f168201915b505050505081565b6001546003546040516323b872dd60e01b815233600482015230602482015260448101919091526000916001600160a01b0316906323b872dd906064016020604051808303816000875af115801561046b573d6000803e3d6000fd5b505050506040513d601f19601f8201168201806040525081019061048f91906106cd565b6104cd5760405162461bcd60e51b815260206004820152600f60248201526e151c985b9cd9995c8819985a5b1959608a1b604482015260640161025e565b600354600460008282546104e19190610758565b9091555050600580549060006104f683610771565b9091555050600354604080519182526020820184905233917ff3816d9cce3442fbfe3e4d36ad047b3362efdc9f2e283e77b0ecd768a0a01ef2910160405180910390a2506001919050565b61054961057f565b6001600160a01b03811661057357604051631e4fbdf760e01b81526000600482015260240161025e565b61057c816105ac565b50565b6000546001600160a01b0316331461037f5760405163118cdaa760e01b815233600482015260240161025e565b600080546001600160a01b038381166001600160a01b0319831681178455604051919092169283917f8be0079c531659141344cd1fd0a4f28419497f9722a3daafe3b4186f6b6457e09190a35050565b80356001600160a01b038116811461061357600080fd5b919050565b6000806040838503121561062b57600080fd5b8235915061063b602084016105fc565b90509250929050565b60006020828403121561065657600080fd5b5035919050565b600060208083528351808285015260005b8181101561068a5785810183015185820160400152820161066e565b506000604082860101526040601f19601f8301168501019250505092915050565b6000602082840312156106bd57600080fd5b6106c6826105fc565b9392505050565b6000602082840312156106df57600080fd5b815180151581146106c657600080fd5b60006020828403121561070157600080fd5b5051919050565b600181811c9082168061071c57607f821691505b60208210810361073c57634e487b7160e01b600052602260045260246000fd5b50919050565b634e487b7160e01b600052601160045260246000fd5b8082018082111561076b5761076b610742565b92915050565b60006001820161078357610783610742565b506001019056fea26469706673582212200fe23260511e349c5c3c90cbe3cd92f20dc4916febdc42737e9f3a29d0ac1f8164736f6c63430008140033",
  "linkReferences": {},
  "deployedLinkReferences": {}
}