{
  "_format": "hh-sol-artifact-1",
  "contractName": "PCENTStaking",
  "sourceName": "contracts/PCENTStaking.sol",
  "abi": [
    {
      "inputs": [
        {
          "internalType": "address",
          "name": "_pcent",
          "type": "address"
        }
      ],
      "stateMutability": "nonpayable",
      "type": "constructor"
    },
    {
      "inputs": [
        {
          "internalType": "address",
          "name": "owner",
          "type": "address"
        }
      ],
      "name": "OwnableInvalidOwner",
      "type": "error"
    },
    {
      "inputs": [
        {
          "internalType": "address",
          "name": "account",
          "type": "address"
        }
      ],
      "name": "OwnableUnauthorizedAccount",
      "type": "error"
    },
    {
      "inputs": [],
      "name": "ReentrancyGuardReentrantCall",
      "type": "error"
    },
    {
      "anonymous": false,
      "inputs": [
        {
          "indexed": false,
          "internalType": "uint256",
          "name": "totalStaked",
          "type": "uint256"
        },
        {
          "indexed": false,
          "internalType": "uint256",
          "name": "revenue",
          "type": "uint256"
        },
        {
          "indexed": false,
          "internalType": "uint256",
          "name": "researchers",
          "type": "uint256"
        }
      ],
      "name": "BandwidthUpdated",
      "type": "event"
    },
    {
      "anonymous": false,
      "inputs": [
        {
          "indexed": true,
          "internalType": "address",
          "name": "from",
          "type": "address"
        },
        {
          "indexed": false,
          "internalType": "uint256",
          "name": "amount",
          "type": "uint256"
        },
        {
          "indexed": false,
          "internalType": "string",
          "name": "program",
          "type": "string"
        }
      ],
      "name": "FeeCollected",
      "type": "event"
    },
    {
      "anonymous": false,
      "inputs": [
        {
          "indexed": true,
          "internalType": "address",
          "name": "previousOwner",
          "type": "address"
        },
        {
          "indexed": true,
          "internalType": "address",
          "name": "newOwner",
          "type": "address"
        }
      ],
      "name": "OwnershipTransferred",
      "type": "event"
    },
    {
      "anonymous": false,
      "inputs": [
        {
          "indexed": true,
          "internalType": "address",
          "name": "user",
          "type": "address"
        },
        {
          "indexed": false,
          "internalType": "uint256",
          "name": "amount",
          "type": "uint256"
        }
      ],
      "name": "RewardClaimed",
      "type": "event"
    },
    {
      "anonymous": false,
      "inputs": [
        {
          "indexed": true,
          "internalType": "address",
          "name": "user",
          "type": "address"
        },
        {
          "indexed": false,
          "internalType": "uint256",
          "name": "amount",
          "type": "uint256"
        },
        {
          "indexed": false,
          "internalType": "uint8",
          "name": "tier",
          "type": "uint8"
        }
      ],
      "name": "Staked",
      "type": "event"
    },
    {
      "anonymous": false,
      "inputs": [
        {
          "indexed": true,
          "internalType": "address",
          "name": "user",
          "type": "address"
        },
        {
          "indexed": false,
          "internalType": "uint256",
          "name": "amount",
          "type": "uint256"
        }
      ],
      "name": "Unstaked",
      "type": "event"
    },
    {
      "inputs": [],
      "name": "MIN_STAKE",
      "outputs": [
        {
          "internalType": "uint256",
          "name": "",
          "type": "uint256"
        }
      ],
      "stateMutability": "view",
      "type": "function"
    },
    {
      "inputs": [],
      "name": "UNSTAKE_COOLDOWN",
      "outputs": [
        {
          "internalType": "uint256",
          "name": "",
          "type": "uint256"
        }
      ],
      "stateMutability": "view",
      "type": "function"
    },
    {
      "inputs": [],
      "name": "activeResearchers",
      "outputs": [
        {
          "internalType": "uint256",
          "name": "",
          "type": "uint256"
        }
      ],
      "stateMutability": "view",
      "type": "function"
    },
    {
      "inputs": [
        {
          "internalType": "uint256",
          "name": "",
          "type": "uint256"
        }
      ],
      "name": "bandwidthHistory",
      "outputs": [
        {
          "internalType": "uint256",
          "name": "totalStaked",
          "type": "uint256"
        },
        {
          "internalType": "uint256",
          "name": "platformRevenue",
          "type": "uint256"
        },
        {
          "internalType": "uint256",
          "name": "activeResearchers",
          "type": "uint256"
        },
        {
          "internalType": "uint256",
          "name": "bountiesPaid",
          "type": "uint256"
        },
        {
          "internalType": "uint256",
          "name": "timestamp",
          "type": "uint256"
        }
      ],
      "stateMutability": "view",
      "type": "function"
    },
    {
      "inputs": [],
      "name": "claimReward",
      "outputs": [],
      "stateMutability": "nonpayable",
      "type": "function"
    },
    {
      "inputs": [
        {
          "internalType": "address",
          "name": "from",
          "type": "address"
        },
        {
          "internalType": "uint256",
          "name": "amount",
          "type": "uint256"
        },
        {
          "internalType": "string",
          "name": "program",
          "type": "string"
        }
      ],
      "name": "collectFee",
      "outputs": [],
      "stateMutability": "nonpayable",
      "type": "function"
    },
    {
      "inputs": [],
      "name": "feePercent",
      "outputs": [
        {
          "internalType": "uint256",
          "name": "",
          "type": "uint256"
        }
      ],
      "stateMutability": "view",
      "type": "function"
    },
    {
      "inputs": [],
      "name": "getBandwidth",
      "outputs": [
        {
          "internalType": "uint256",
          "name": "staked",
          "type": "uint256"
        },
        {
          "internalType": "uint256",
          "name": "revenue",
          "type": "uint256"
        },
        {
          "internalType": "uint256",
          "name": "researchers",
          "type": "uint256"
        },
        {
          "internalType": "uint256",
          "name": "bounties",
          "type": "uint256"
        }
      ],
      "stateMutability": "view",
      "type": "function"
    },
    {
      "inputs": [
        {
          "internalType": "uint256",
          "name": "count",
          "type": "uint256"
        }
      ],
      "name": "getBandwidthHistory",
      "outputs": [
        {
          "components": [
            {
              "internalType": "uint256",
              "name": "totalStaked",
              "type": "uint256"
            },
            {
              "internalType": "uint256",
              "name": "platformRevenue",
              "type": "uint256"
            },
            {
              "internalType": "uint256",
              "name": "activeResearchers",
              "type": "uint256"
            },
            {
              "internalType": "uint256",
              "name": "bountiesPaid",
              "type": "uint256"
            },
            {
              "internalType": "uint256",
              "name": "timestamp",
              "type": "uint256"
            }
          ],
          "internalType": "struct PCENTStaking.BandwidthRecord[]",
          "name": "",
          "type": "tuple[]"
        }
      ],
      "stateMutability": "view",
      "type": "function"
    },
    {
      "inputs": [
        {
          "internalType": "address",
          "name": "user",
          "type": "address"
        }
      ],
      "name": "getStakerInfo",
      "outputs": [
        {
          "internalType": "uint256",
          "name": "amount",
          "type": "uint256"
        },
        {
          "internalType": "uint8",
          "name": "tier",
          "type": "uint8"
        },
        {
          "internalType": "uint256",
          "name": "pendingReward",
          "type": "uint256"
        },
        {
          "internalType": "uint256",
          "name": "cooldownEnd",
          "type": "uint256"
        }
      ],
      "stateMutability": "view",
      "type": "function"
    },
    {
      "inputs": [],
      "name": "owner",
      "outputs": [
        {
          "internalType": "address",
          "name": "",
          "type": "address"
        }
      ],
      "stateMutability": "view",
      "type": "function"
    },
    {
      "inputs": [],
      "name": "pcent",
      "outputs": [
        {
          "internalType": "contract IERC20",
          "name": "",
          "type": "address"
        }
      ],
      "stateMutability": "view",
      "type": "function"
    },
    {
      "inputs": [],
      "name": "platformRevenue",
      "outputs": [
        {
          "internalType": "uint256",
          "name": "",
          "type": "uint256"
        }
      ],
      "stateMutability": "view",
      "type": "function"
    },
    {
      "inputs": [],
      "name": "renounceOwnership",
      "outputs": [],
      "stateMutability": "nonpayable",
      "type": "function"
    },
    {
      "inputs": [],
      "name": "revenueDistributed",
      "outputs": [
        {
          "internalType": "uint256",
          "name": "",
          "type": "uint256"
        }
      ],
      "stateMutability": "view",
      "type": "function"
    },
    {
      "inputs": [],
      "name": "rewardRate",
      "outputs": [
        {
          "internalType": "uint256",
          "name": "",
          "type": "uint256"
        }
      ],
      "stateMutability": "view",
      "type": "function"
    },
    {
      "inputs": [
        {
          "internalType": "uint256",
          "name": "_pct",
          "type": "uint256"
        }
      ],
      "name": "setFeePercent",
      "outputs": [],
      "stateMutability": "nonpayable",
      "type": "function"
    },
    {
      "inputs": [
        {
          "internalType": "uint256",
          "name": "_rate",
          "type": "uint256"
        }
      ],
      "name": "setRewardRate",
      "outputs": [],
      "stateMutability": "nonpayable",
      "type": "function"
    },
    {
      "inputs": [
        {
          "internalType": "uint256",
          "name": "amount",
          "type": "uint256"
        }
      ],
      "name": "stake",
      "outputs": [],
      "stateMutability": "nonpayable",
      "type": "function"
    },
    {
      "inputs": [
        {
          "internalType": "address",
          "name": "",
          "type": "address"
        }
      ],
      "name": "stakes",
      "outputs": [
        {
          "internalType": "uint256",
          "name": "amount",
          "type": "uint256"
        },
        {
          "internalType": "uint256",
          "name": "timestamp",
          "type": "uint256"
        },
        {
          "internalType": "uint256",
          "name": "lastRewardClaim",
          "type": "uint256"
        },
        {
          "internalType": "uint8",
          "name": "tier",
          "type": "uint8"
        }
      ],
      "stateMutability": "view",
      "type": "function"
    },
    {
      "inputs": [],
      "name": "totalBountiesPaid",
      "outputs": [
        {
          "internalType": "uint256",
          "name": "",
          "type": "uint256"
        }
      ],
      "stateMutability": "view",
      "type": "function"
    },
    {
      "inputs": [],
      "name": "totalStaked",
      "outputs": [
        {
          "internalType": "uint256",
          "name": "",
          "type": "uint256"
        }
      ],
      "stateMutability": "view",
      "type": "function"
    },
    {
      "inputs": [
        {
          "internalType": "address",
          "name": "newOwner",
          "type": "address"
        }
      ],
      "name": "transferOwnership",
      "outputs": [],
      "stateMutability": "nonpayable",
      "type": "function"
    },
    {
      "inputs": [
        {
          "internalType": "uint256",
          "name": "amount",
          "type": "uint256"
        }
      ],
      "name": "unstake",
      "outputs": [],
      "stateMutability": "nonpayable",
      "type": "function"
    },
    {
      "inputs": [
        {
          "internalType": "address",
          "name": "token",
          "type": "address"
        },
        {
          "internalType": "uint256",
          "name": "amount",
          "type": "uint256"
        }
      ],
      "name": "withdrawAccidentalTokens",
      "outputs": [],
      "stateMutability": "nonpayable",
      "type": "function"
    }
  ],
  "bytecode": "0x6080604052600560075534801561001557600080fd5b506040516200171a3803806200171a83398101604081905261003691610161565b338061005d57604051631e4fbdf760e01b8152600060048201526024015b60405180910390fd5b61006681610111565b5060017f9b779b17422d0df92223018b32b4d1fa46e071723d6817e2486d003becc55f00556001600160a01b0381166100e15760405162461bcd60e51b815260206004820152601560248201527f496e76616c6964205043454e54206164647265737300000000000000000000006044820152606401610054565b600180546001600160a01b0319166001600160a01b03929092169190911790556681ac8e7e4d4000600455610191565b600080546001600160a01b038381166001600160a01b0319831681178455604051919092169283917f8be0079c531659141344cd1fd0a4f28419497f9722a3daafe3b4186f6b6457e09190a35050565b60006020828403121561017357600080fd5b81516001600160a01b038116811461018a57600080fd5b9392505050565b61157980620001a16000396000f3fe608060405234801561001057600080fd5b50600436106101735760003560e01c80637ce3489b116100de578063a21d70b911610097578063b88a802f11610071578063b88a802f1461039c578063cb1c2b5c146103a4578063f2fde38b146103b5578063fdf5df49146103c857600080fd5b8063a21d70b91461032e578063a694fc3a1461034e578063ae437d751461036157600080fd5b80637ce3489b146102d25780637fd6f15c146102e5578063817b1cd2146102ee5780638da5cb5b146102f75780639e447fc6146103085780639f3043c31461031b57600080fd5b806334ed341b1161013057806334ed341b1461026757806338a8b11a146102705780634356de8f14610279578063715018a61461028c578063733bdef0146102945780637b0a47ee146102c957600080fd5b80630b60c58f1461017857806316934fc41461019557806324048ba1146101f25780632439642b146101fb5780632e17de781461022657806331b670761461023b575b600080fd5b61018262093a8081565b6040519081526020015b60405180910390f35b6101cf6101a336600461126b565b600260208190526000918252604090912080546001820154928201546003909201549092919060ff1684565b6040805194855260208501939093529183015260ff16606082015260800161018c565b61018260055481565b60015461020e906001600160a01b031681565b6040516001600160a01b03909116815260200161018c565b61023961023436600461128d565b6103d1565b005b600354600554600954600a5460408051948552602085019390935291830152606082015260800161018c565b610182600a5481565b61018260065481565b6102396102873660046112a6565b6105f9565b6102396106ee565b6102a76102a236600461126b565b610702565b6040805194855260ff909316602085015291830152606082015260800161018c565b61018260045481565b6102396102e036600461128d565b610790565b61018260075481565b61018260035481565b6000546001600160a01b031661020e565b61023961031636600461128d565b6107d8565b6102396103293660046112d0565b6107e5565b61034161033c36600461128d565b61092b565b60405161018c9190611357565b61023961035c36600461128d565b610a7b565b61037461036f36600461128d565b610c90565b604080519586526020860194909452928401919091526060830152608082015260a00161018c565b610239610cd1565b61018269d3c21bcecceda100000081565b6102396103c336600461126b565b610cf9565b61018260095481565b6103d9610d34565b33600090815260026020526040902080548211156104335760405162461bcd60e51b8152602060048201526012602482015271496e73756666696369656e74207374616b6560701b60448201526064015b60405180910390fd5b62093a80816001015461044691906113db565b4210156104875760405162461bcd60e51b815260206004820152600f60248201526e436f6f6c646f776e2061637469766560881b604482015260640161042a565b61049033610d50565b818160000160008282546104a491906113f4565b9250508190555081600360008282546104bd91906113f4565b909155505060015460405163a9059cbb60e01b8152336004820152602481018490526001600160a01b039091169063a9059cbb906044016020604051808303816000875af1158015610513573d6000803e3d6000fd5b505050506040513d601f19601f820116820180604052508101906105379190611407565b6105755760405162461bcd60e51b815260206004820152600f60248201526e151c985b9cd9995c8819985a5b1959608a1b604482015260640161042a565b80546000036105a0576009805490600061058e83611429565b909155505060038101805460ff191690555b6105a8610f66565b60405182815233907f0f5bb82176feb1b5e747e28471aa92156a04d9f3ab9f45f28e2d704232b93f75906020015b60405180910390a2506105f6600160008051602061152483398151915255565b50565b6106016111a2565b6001546001600160a01b03908116908316036106575760405162461bcd60e51b815260206004820152601560248201527410d85b9b9bdd081dda5d1a191c985dc81410d15395605a1b604482015260640161042a565b816001600160a01b031663a9059cbb6106786000546001600160a01b031690565b6040516001600160e01b031960e084901b1681526001600160a01b039091166004820152602481018490526044016020604051808303816000875af11580156106c5573d6000803e3d6000fd5b505050506040513d601f19601f820116820180604052508101906106e99190611407565b505050565b6106f66111a2565b61070060006111cf565b565b6001600160a01b038116600090815260026020819052604082208054600382015492820154909360ff90931692918291829061073e90426113f4565b9050670de0b6b3a764000081600454846000015461075c9190611440565b6107669190611440565b6107709190611457565b935062093a80826001015461078591906113db565b925050509193509193565b6107986111a2565b60148111156107d35760405162461bcd60e51b81526020600482015260076024820152664d61782032302560c81b604482015260640161042a565b600755565b6107e06111a2565b600455565b6107ed6111a2565b6001546040516323b872dd60e01b81526001600160a01b03868116600483015230602483015260448201869052909116906323b872dd906064016020604051808303816000875af1158015610846573d6000803e3d6000fd5b505050506040513d601f19601f8201168201806040525081019061086a9190611407565b6108ac5760405162461bcd60e51b8152602060048201526013602482015272119959481d1c985b9cd9995c8819985a5b1959606a1b604482015260640161042a565b82600560008282546108be91906113db565b9091555050600a80549060006108d383611479565b91905055506108e0610f66565b836001600160a01b03167fbde344b6f67c3bf7e0ecbbf22b04267d5d3ae0aa1909c0000b812f6b14ce45b984848460405161091d93929190611492565b60405180910390a250505050565b60085460609060008184106109405781610942565b835b905060008167ffffffffffffffff81111561095f5761095f6114c8565b6040519080825280602002602001820160405280156109c257816020015b6109af6040518060a0016040528060008152602001600081526020016000815260200160008152602001600081525090565b81526020019060019003908161097d5790505b50905060005b82811015610a72576008816109dd85876113f4565b6109e791906113db565b815481106109f7576109f76114de565b90600052602060002090600502016040518060a001604052908160008201548152602001600182015481526020016002820154815260200160038201548152602001600482015481525050828281518110610a5457610a546114de565b60200260200101819052508080610a6a90611479565b9150506109c8565b50949350505050565b610a83610d34565b60008111610ac85760405162461bcd60e51b81526020600482015260126024820152710416d6f756e74206d757374206265203e20360741b604482015260640161042a565b6001546040516323b872dd60e01b8152336004820152306024820152604481018390526001600160a01b03909116906323b872dd906064016020604051808303816000875af1158015610b1f573d6000803e3d6000fd5b505050506040513d601f19601f82011682018060405250810190610b439190611407565b610b815760405162461bcd60e51b815260206004820152600f60248201526e151c985b9cd9995c8819985a5b1959608a1b604482015260640161042a565b3360009081526002602052604081208054909103610baf5760098054906000610ba983611479565b91905055505b81816000016000828254610bc391906113db565b90915550504260018201819055600282015580546a52b7d2dcc80cd2e400000011610bfc5760038101805460ff19166002179055610c30565b80546a084595161401484a00000011610c235760038101805460ff19166001179055610c30565b60038101805460ff191690555b8160036000828254610c4291906113db565b90915550610c509050610f66565b60038101546040805184815260ff909216602083015233917f8acf475137e0cd74ca7f611d16b1e6383ec9a9c71a8e5b85967781b9c7214d1191016105d6565b60088181548110610ca057600080fd5b6000918252602090912060059091020180546001820154600283015460038401546004909401549294509092909185565b610cd9610d34565b610ce233610d50565b610700600160008051602061152483398151915255565b610d016111a2565b6001600160a01b038116610d2b57604051631e4fbdf760e01b81526000600482015260240161042a565b6105f6816111cf565b610d3c61121f565b600260008051602061152483398151915255565b6001600160a01b03811660009081526002602052604081208054909103610d75575050565b6000816002015442610d8791906113f4565b90506000670de0b6b3a7640000826004548560000154610da79190611440565b610db19190611440565b610dbb9190611457565b6003546001546040516370a0823160e01b81523060048201529293506000926001600160a01b03909116906370a0823190602401602060405180830381865afa158015610e0c573d6000803e3d6000fd5b505050506040513d601f19601f82011682018060405250810190610e3091906114f4565b610e3a91906113f4565b905080821115610e48578091505b8115610f585742600285015560015460405163a9059cbb60e01b81526001600160a01b038781166004830152602482018590529091169063a9059cbb906044016020604051808303816000875af1158015610ea7573d6000803e3d6000fd5b505050506040513d601f19601f82011682018060405250810190610ecb9190611407565b610f105760405162461bcd60e51b815260206004820152601660248201527514995dd85c99081d1c985b9cd9995c8819985a5b195960521b604482015260640161042a565b846001600160a01b03167f106f923f993c2149d49b4255ff723acafa1f2d94393f561d3eda32ae348f724183604051610f4b91815260200190565b60405180910390a2610f5f565b4260028501555b5050505050565b6040805160a08101825260035481526005805460208301908152600954938301938452600a546060840190815242608085019081526008805460018101825560008290529551959094027ff3f7a9fe364faab93b216da50a3214154f22a0a2b415b23a84c8169e8b636ee381019590955591517ff3f7a9fe364faab93b216da50a3214154f22a0a2b415b23a84c8169e8b636ee485015593517ff3f7a9fe364faab93b216da50a3214154f22a0a2b415b23a84c8169e8b636ee584015592517ff3f7a9fe364faab93b216da50a3214154f22a0a2b415b23a84c8169e8b636ee683015591517ff3f7a9fe364faab93b216da50a3214154f22a0a2b415b23a84c8169e8b636ee790910155546103e810156111595760005b6103e78110156111135760086110948260016113db565b815481106110a4576110a46114de565b9060005260206000209060050201600882815481106110c5576110c56114de565b6000918252602090912082546005909202019081556001808301549082015560028083015490820155600380830154908201556004918201549101558061110b81611479565b91505061107d565b5060088054806111255761112561150d565b6000828152602081206005600019909301928302018181556001810182905560028101829055600381018290556004015590555b60035460055460095460408051938452602084019290925282820152517f85575ff4215434bb4a6e5a48785bb42eb8971828e41bf7674875163727bac7299181900360600190a1565b6000546001600160a01b031633146107005760405163118cdaa760e01b815233600482015260240161042a565b600080546001600160a01b038381166001600160a01b0319831681178455604051919092169283917f8be0079c531659141344cd1fd0a4f28419497f9722a3daafe3b4186f6b6457e09190a35050565b6000805160206115248339815191525460020361070057604051633ee5aeb560e01b815260040160405180910390fd5b80356001600160a01b038116811461126657600080fd5b919050565b60006020828403121561127d57600080fd5b6112868261124f565b9392505050565b60006020828403121561129f57600080fd5b5035919050565b600080604083850312156112b957600080fd5b6112c28361124f565b946020939093013593505050565b600080600080606085870312156112e657600080fd5b6112ef8561124f565b935060208501359250604085013567ffffffffffffffff8082111561131357600080fd5b818701915087601f83011261132757600080fd5b81358181111561133657600080fd5b88602082850101111561134857600080fd5b95989497505060200194505050565b602080825282518282018190526000919060409081850190868401855b828110156113b85781518051855286810151878601528581015186860152606080820151908601526080908101519085015260a09093019290850190600101611374565b5091979650505050505050565b634e487b7160e01b600052601160045260246000fd5b808201808211156113ee576113ee6113c5565b92915050565b818103818111156113ee576113ee6113c5565b60006020828403121561141957600080fd5b8151801515811461128657600080fd5b600081611438576114386113c5565b506000190190565b80820281158282048414176113ee576113ee6113c5565b60008261147457634e487b7160e01b600052601260045260246000fd5b500490565b60006001820161148b5761148b6113c5565b5060010190565b83815260406020820152816040820152818360608301376000818301606090810191909152601f909201601f1916010192915050565b634e487b7160e01b600052604160045260246000fd5b634e487b7160e01b600052603260045260246000fd5b60006020828403121561150657600080fd5b5051919050565b634e487b7160e01b600052603160045260246000fdfe9b779b17422d0df92223018b32b4d1fa46e071723d6817e2486d003becc55f00a264697066735822122033f882d669d5568237dce97d730d40b4729854bd5a80221934a62a93ca2cc2f864736f6c63430008140033",
  "linkReferences": {},
  "deployedLinkReferences": {}
}